:020000040800F2
:100000002007002035020008871700086516000841
:100010008517000823040008591C00080000000090
:100020000000000000000000000000009117000820
:1000300025040008000000008D1700089317000831
:100040004F020008891700084F0200084F020008FD
:10005000D50400088F1700084F0200084F0200085F
:100060004F0200084F0200084F0200084F0200082C
:100070004F0200084F0200084F0200084F0200081C
:100080004F0200084F0200084F0200080000000065
:100090000000000000000000000000004F02000807
:1000A0004F0200084F0200084F0200084F020008EC
:1000B0004F0200084F0200084F0200084F020008DC
:1000C0004F0200084F0200084F0200084F020008CC
:1000D0004F0200084F0200084D1C000800000000FD
:1000E000270400084F0200084F020008000000002B
:1000F0000000000000000000000000004F020008A7
:10010000000000004F0200084F0200084F020008E4
:1001100000000000000000000000000000000000DF
:100120004F0200084F0200084F0200084F0200086B
:100130004F02000800000000000000000000000066
:100140000000000000000000000000004F02000856
:100150004F0200084F0200084F0200084F0200083B
:100160004F0200084F0200080000000000000000DD
:10017000000000000000000000000000000000007F
:10018000000000005505000800000000000000000D
:100190004F02000800F002F800F03CF80AA090E8D6
:1001A000000C82448344AAF10107DA4501D100F032
:1001B00031F8AFF2090EBAE80F0013F0010F18BFC3
:1001C000FB1A43F0010318476C1C00008C1C000054
:1001D000103A24BF78C878C1FAD8520724BF30C873
:1001E00030C144BF04680C60704700000023002445
:1001F00000250026103A28BF78C1FBD8520728BF37
:1002000030C148BF0B6070471FB501F001FE1FBD34
:1002100010B510BD00F0CFF81146FFF7F5FF01F063
:100220002DFD00F0EDF803B4FFF7F2FF03BC00F082
:10023000F1F800000948804709480047FEE7FEE75B
:10024000FEE7FEE7FEE7FEE7FEE7FEE7FEE7FEE786
:1002500004480549054A064B704700001918000874
:100260009501000820010020200700202003002025
:100270002003002053EA020C00F069802DE9F04BC6
:100280004FF00006002B1FBFB3FA83F503FA05F405
:1002900024FA05F65E4012BF1643B2FA82F502FA5E
:1002A00005F4C5F120051EBF22FA05FC44EA0C0442
:1002B000203556EA044C4FEA144418BF641C4FF032
:1002C00000084FF00009904271EB030C39D300296C
:1002D00019BFB1FA81F701FA07F6B0FA80F700FA10
:1002E00007F6C7F120071EBF20FA07FC46EA0C06F6
:1002F0002037B6FBF4FCA7EB0507103F07F01F0BF8
:10030000CBF120060CFA0BFB2CFA06F644BFB346E1
:100310000026202FA4BF5E464FF0000B5BEA060CC0
:1003200008BF4FF0010B19EB0B09ABFB027C48EB4C
:100330000608C01B06FB02CC0BFB03CC71EB0C01C7
:10034000C1E70B46024641464846BDE8F08B13B56F
:100350004FF000004FF00001AFF30080BDE81C40FB
:1003600070474FF0000200B5134694469646203978
:1003700022BFA0E80C50A0E80C50B1F12001BFF45E
:10038000F7AF090728BFA0E80C5048BF0CC05DF8C4
:1003900004EB890028BF40F8042B08BF704748BF12
:1003A00020F8022B11F0804F18BF00F8012B704786
:1003B000704770477047754600F028F8AE46050054
:1003C0006946534620F00700854618B020B5FFF770
:1003D0003FFFBDE820404FF000064FF000074FF010
:1003E00000084FF0000B21F00701AC46ACE8C00953
:1003F000ACE8C009ACE8C009ACE8C0098D4670475C
:100400000446AFF300802046FFF70DFF0048704719
:10041000BC00002001491820ABBEFEE72600020008
:100420007047FEE770474FF4005000F06BB90000D2
:10043000002229B101291AD002291BD04FF44072A1
:100440000E490B6823F440730B600B6813430B6079
:100450000A6822F0F8020A600A68022303EBC0006F
:1004600002430A60086840F48030086070474FF427
:100470008072E5E74FF40072E2E70000103C0240B2
:100480001348016889050FD5016821F400710160E6
:10049000016841F400610160016821F400610160BC
:1004A000016841F400710160016849050FD50168D8
:1004B00021F480610160016841F4805101600168AC
:1004C00021F480510160016841F48061016070474E
:1004D000003C024000F0AEB81C490868C2061C4847
:1004E00005D5C26942F01002C26110220A600A6892
:1004F000920605D5C26942F00802C26120220A6054
:100500000A68520605D5C26942F00402C26140225F
:100510000A600A68120605D5C26942F00202C26189
:1005200080220A600A68D20506D5C26942F001023B
:10053000C2614FF480720A600A68920705D5C269E9
:1005400042F02002C2610220086070470C3C024069
:100550009C00002070472DE9F0410446876D00F0B3
:10056000D3F9064694F835000025022806D08020ED
:10057000606584F834500120BDE8F081206801688E
:1005800021F0160101602068416921F0800141617C
:10059000206C08B9A06C20B12068016821F0080126
:1005A00001602068016821F0010101600CE000F0A9
:1005B000ABF9801B052807D920206065032084F84B
:1005C000350084F83450D7E720680068C007EED1C2
:1005D00094F85C103F208840B860012084F8350012
:1005E00084F834500020C7E790F83510022903D072
:1005F0008021416501207047052180F83510006891
:10060000016821F0010101600020704770B50446C7
:1006100000F07AF90546601C02D0044800780444D2
:1006200000F072F9401BA042FAD370BD0000002018
:10063000704700002DE9F0412F4F38682F4C10F41F
:10064000F97F4FF0FF384FF000050DD020780128DA
:100650002DD0207802282ED0D4F81460FFF73CFF6C
:10066000304600F04DF825703868C0070BD00120E7
:1006700038602078012820D02078022837D060699F
:10068000FFF7D6FF2570207800280ED11A48001DEC
:10069000016821F0FF010160016821F080710160B3
:1006A000016821F0007101602576BDE8F081E668FF
:1006B000C4F80C80D2E72669D0E76068401E60600D
:1006C000606850B1E068FFF7B3FFE068401CE0608D
:1006D000E068217AFFF7ACFED5E74646C4F80C8007
:1006E0002570FFF7CDFE3046FFF7A2FFCBE7FFF7FF
:1006F000C7FE2069C4E700000C3C02409C000020BB
:1007000070477047044910B50A68024202D0086079
:10071000FFF7F7FF10BD0000143C01402DE9F84F32
:10072000DFF8B8A10022012403254FF00F090AF1D8
:10073000040BAAF1040E00BF0B6804FA02F6334062
:10074000B34273D10F7907F00307012F01D0022FB5
:1007500016D187684FEA420805FA08FC27EA0C0719
:10076000D1F80CC00CFA08FC4CEA070CC0F808C021
:100770004768B7430E79C6F3001696403E4346607D
:100780000E79F643B6070DD0C768560005FA06FC89
:1007900027EA0C07D1F808C00CFA06FC4CEA070C53
:1007A000C0F80CC00E7906F00306022E10D1D60850
:1007B00000EB8608D8F8206057074FEAD76C09FA93
:1007C0000CF7BE430F6907FA0CF73743C8F82070DF
:1007D00006684FEA420C05FA0CF7BE430F7907F0A2
:1007E000030707FA0CF7374307604E6816F4403FDB
:1007F0006DD03B4E376847F480473760366822F04B
:10080000030706F480460096364E07EB060CDCF82C
:10081000086897073F0F09FA07F826EA0806DFF885
:10082000C880404503D14FF000081EE04FE0DFF8DC
:10083000BC80404502D14FF0010816E0DFF8B080DF
:10084000404502D14FF002080FE0DFF8A880404594
:1008500002D14FF0030808E0DFF89C80404502D148
:100860004FF0040801E04FF0070808FA07F848EADB
:100870000608CCF80888DAF800605746D1F804C0BA
:100880009E435FEACC2C00D51E433E60DBF800603F
:100890005F46D1F804C09E435FEA8C2C00D51E430E
:1008A0003E60DEF800607746D1F804C09E435FEA00
:1008B0008C3C00D51E433E60084F083F3E68D1F88F
:1008C00004C09E435FEACC3C00D51E433E60521CF0
:1008D000102AFFF431AFBDE8F88F0000083C01405A
:1008E0004438024000300140000002400004024051
:1008F00000080240000C024000100240006908405D
:1009000000D0012070470000014880687047000057
:10091000000000200248816802781144816070471D
:10092000000000200B4810B5016841F4007101601F
:10093000016841F480610160016841F480710160E7
:10094000032000F09BF8002000F006F800F024F8E7
:10095000002010BD003C024070B50D4D04464FF420
:100960007A712878B1FBF0F00A490968B1FBF0F020
:1009700000F046FB48B9102C07D200222146501E39
:1009800000F05CF800206C6070BD012070BD0000BC
:10099000000000200C000020204808B5016841F448
:1009A00080410160006800F4804000901B48001FF7
:1009B000016841F080510160006800F080500090B3
:1009C000072000F05BF800221146012000F036F805
:1009D000012000F025F800221146042000F02EF836
:1009E000042000F01DF800221146052000F026F832
:1009F000052000F015F800221146052000F01EF831
:100A0000052000F00DF800221146512000F016F8E4
:100A1000BDE80840512000F003B80000443802400F
:100A2000002809DB00F01F020121914040098000ED
:100A300000F1E020C0F8001170470000F0B40E4B48
:100A40001B680C46C3F30223C3F10705042D00D92C
:100A50000425191D072901D2002300E0DB1E012611
:100A600006FA05F1491E214099409E40761E164027
:100A70003143F0BC01F0F1B80CED00E0064900F0A4
:100A8000070208684FF6FF03184040EA0220034AB5
:100A900010430860704700000CED00E00000FA050C
:100AA0007047000010B5054C2068C00304D5FFF75F
:100AB000F7FF4FF48030206010BD0000143C01406F
:100AC0002DE9F0470E46050065D0DFF81481D8F80F
:100AD0000000F7B200F00700B04207D288F80070BB
:100AE000D8F8000000F00700B04254D128683D4C0F
:100AF000810712D5400703D5206840F4E0502060FC
:100B00002878000703D5206840F460402060206802
:100B1000A96820F0F000084320602878C0072DD095
:100B2000304968680839012812D0022813D00328F8
:100B300011D00968890700292DDA216821F0030105
:100B400001432160FFF7E0FE814641F2883A0EE062
:100B500009688903EFE709688901ECE7FFF7D4FE2C
:100B6000A0EB0901514502D90320BDE8F0872068B8
:100B7000696800F00C00B0EB810FEFD1D8F80010DD
:100B8000404601F00701B14207D90770006800F044
:100B90000700B04201D00120E7E72878400705D5DB
:100BA0002068E96820F4E0500843206028780007B6
:100BB00006D52068296920F4604040EAC100206021
:100BC00000F038F82168084AC1F30311515CC840AD
:100BD0000649086006480068FFF7BEFE0020C4E72B
:100BE000003C0240083802401A1E00080C00002099
:100BF000040000200448054900680968044AC1F35C
:100C00008221515CC84070470C0000200838024027
:100C10002A1E00080448054900680968044AC1F30F
:100C20004231515CC84070470C0000200838024037
:100C30002A1E0008154810B5006810F00C02144870
:100C400013D04110042A0FD0082A0ED10F4C241FB4
:100C50002268236802F03F025B0207D52068C0F3D8
:100C60008810A0FB010106E0084610BD2168C1F311
:100C70008811A1FB00010023FFF7FCFA2168C1F3F2
:100C80000141491C4900B0FBF1F010BD0838024099
:100C90000024F4002DE9F84F04006ED02078DFF82E
:100CA0004C93C007A9F104054AD009F1040001687A
:100CB000C1F38101012908D00068C0F38100022836
:100CC0000AD1D9F80000400206D52868800337D53C
:100CD00060680028E1D033E06068B0F5803F10D054
:100CE000B0F5A02F286810D020F480302860286844
:100CF00020F4802028606068A8B1FFF705FE064652
:100D00000DE0286840F48030F4E740F4802028604B
:100D1000F7E700BFFFF7F8FD801B642873D8286849
:100D20008003F7D50CE0FFF7EFFD064605E000BFB6
:100D3000FFF7EAFD801B6428F0D828688003F7D409
:100D40002078DFF8AC8280074FF0000A3ED5A74834
:100D5000001D016811F00C0F08D00068C0F381007D
:100D600002280BD1D9F80000400207D42868800778
:100D700016D5E068012800D112E033E1E068B8B18F
:100D80000120C8F80000FFF7BFFD064605E000BFE0
:100D9000FFF7BAFD801B0228C0D828688007F7D566
:100DA0002868216920F0F80040EAC10028600DE0C1
:100DB000C8F800A0FFF7A8FD064604E0FFF7A4FD71
:100DC000801B02281FD828688007F7D420780007E6
:100DD00022D5864F87486169703771B10121016062
:100DE000FFF792FD064604E0FFF78EFD801B022808
:100DF00009D838688007F7D50EE0C0F800A0FFF7E3
:100E000083FD064605E082E0FFF77EFD801B022899
:100E10007DD838688007F7D42078400768D5DFF898
:100E2000CCB100270BF13C0BDBF80000C0000BD469
:100E3000DBF8001041F08051CBF80010DBF8000027
:100E4000012700F0805000906B4E3068C00510D430
:100E5000306840F480703060FFF756FD009005E088
:100E6000FFF752FD0099401A022850D83068C0059B
:100E7000F6D55E4EA0686C3601280FD00528306884
:100E800010D020F001003060306820F004003060A5
:100E9000A068B8B1FFF738FD00900FE0306840F06F
:100EA0000100F4E740F004003060F7E7FFF72CFDA5
:100EB0000099411A41F28830814266D83068800733
:100EC000F4D50EE0FFF720FD009007E0FFF71CFDD2
:100ED0000099411A41F28830814256D83068800723
:100EE000F4D42FB1DBF8001021F08051CBF80010C2
:100EF000A069C8B33D49091D0968C1F381010229F0
:100F00004AD00228504607D0C8F8600000E03CE014
:100F1000FFF7FAFC04463BE04746C8F86000FFF7DD
:100F2000F3FC064605E000BFFFF7EEFC801B02283D
:100F30002BD828688001F7D4D4E907010843A16AB7
:100F40002E4A490802EB0141626A41EA82110843D4
:100F500094F82C1040EA0161C9F8001001203866AD
:100F6000FFF7D2FC044606E03EE000BFFFF7CCFCF2
:100F7000001B022809D828688001F7D534E000BF9B
:100F8000FFF7C2FC001B022802D90320BDE8F88F3E
:100F900028688001F4D427E00128F7D0D9F80000B0
:100FA000E26900F4800191421CD1226A00F03F0105
:100FB000914217D147F6C071626A0140B1EB821FBE
:100FC00010D1A26A4FF0FF3300F4403103EB52021C
:100FD000B1EB024F06D194F82C1000F07060B0EB2A
:100FE000016F01D00120D1E70020CFE70438024093
:100FF00000004742800E4742007000400000FFFFA3
:1010000010B5401EB0F1807F01D3012010BD4FF01C
:10101000E02460610F21601700F01FFE0020A06136
:1010200007202061002010BD70B590F83C20012AF7
:101030002CD0012480F83C40022280F83D20036837
:101040005A689D6822F070060A6832435A60104B55
:1010500002689A420ED0B2F1804F0BD00D4B9A42EB
:1010600008D00D4B9A4205D00C4B9A4202D00C4B43
:101070009A4204D1496825F080031943916080F8B1
:101080003D40002180F83C10084670BD022070BD34
:10109000000001400004004000080040000C004037
:1010A0000040014070B586B0044614216846FFF741
:1010B00058F92068B0F1804F27D115480024016805
:1010C00041F001010160016801F001010591016831
:1010D00041F0020101600068022500F00200059065
:1010E00020200090CDE901540126CDE90346694650
:1010F0000848FFF713FB08200090CDE90154CDE923
:10110000034669460448FFF709FB06B070BD0000BE
:1011100030380240000002400004024070B504462E
:1011200090F83C0000260D4601280FD0012084F8DD
:101130003C006AB1042A1DD0082A2FD00C2A3FD0C7
:101140000126002084F83C00304670BD022070BDAE
:10115000206800F0C3FB2068816941F008018161CB
:101160002068816921F004018161206881692A6910
:10117000114311E0206800F0D9FB2068816941F437
:10118000006181612068816921F48061816120684A
:1011900081692A6941EA02218161D2E7206800F071
:1011A000F1FB2068C16941F00801C1612068C16993
:1011B00021F00401C1612068C1692A69114311E06D
:1011C000206800F00BFC2068C16941F40061C16136
:1011D0002068C16921F48061C1612068C1692A6900
:1011E00041EA0221C161ACE710B5040003D094F8D4
:1011F0003D0010B107E0012010BD002084F83C0044
:10120000204600F01FF8022084F83D00211D2068D0
:1012100000F00AFB012084F8460084F83E0084F8C0
:101220003F0084F8400084F8410084F8420084F8CC
:10123000430084F8440084F8450084F83D00002011
:1012400010BD000008B50068B0F1804F08D1054816
:10125000016841F001010160006800F001000090A8
:1012600008BD00004038024010B50446022249B1D2
:1012700004290ED0082913D094F84100012816D073
:10128000012010BD94F83E000128F9D184F83E20D9
:101290000FE094F83F000128F2D184F83F2008E0E5
:1012A00094F840000128EBD184F8402001E084F854
:1012B00041200122206800F003FB12492068884287
:1012C00003D1426C42F400424264206888420ED04E
:1012D000B0F1804F0BD00C49884208D00B498842AE
:1012E00005D00B49884202D00A49884204D181685E
:1012F00001F00701062903D0016841F001010160F6
:10130000002010BD00000140000400400008004023
:10131000000C00400040014070477047F8B501687C
:1013200004460868CA684B6910F00F0F4FF00005BB
:101330005AD003F0010602F49077374365D0C10715
:1013400005D0D10503D5216C41F00101216441078D
:1013500005D5D90703D0216C41F002012164810732
:1013600005D5D90703D0216C41F0040121640107A0
:1013700007D502F02001314303D0216C41F0080170
:101380002164216C00293BD0800604D5900602D54B
:10139000204600F074FB20684069216CC0F3801087
:1013A00001F00801014320462BD000F041FB2068EA
:1013B0004069400621D52068143050E8001F21F014
:1013C000400140E80012002AF5D1A06BA8B16C4999
:1013D0000165A06BFFF708F9002811D0A06B016D23
:1013E00001B0BDE8F040084783060ED593060CD542
:1013F0002046BDE8F84000F042BB2046FFF78DFFD5
:10140000F8BDFFF78AFF2564F8BD266B2023012E67
:1014100079D1C60677D5D60675D508684868009094
:101420004869400640D5A16B086840680004000C7C
:10143000EAD0A28D8242E7D9E085C869B0F5807F05
:101440002DD020680C3050E8001F21F4807140E856
:101450000012002AF5D12068143050E8001F21F056
:10146000010140E80012002AF5D12068143050E84C
:10147000001F21F0400140E80012002AF5D184F855
:101480003E30256320680C3050E8001F21F0100129
:1014900040E80012002AF5D1A06BFFF75CF8A08DA0
:1014A000E18D401A81B229E0A08DE18D401A81B210
:1014B000E08D0028A8D00029A6D020680C3050E884
:1014C000002F22F4907240E80026002EF5D120680B
:1014D000143050E8002F22F0010240E80026002ED0
:1014E000F5D184F83E30256320680C3050E8002F99
:1014F00022F0100240E80023002BF5D12046FFF730
:101500000BFFF8BDFFE705062BD5150629D594F886
:101510003D002128F5D1A068B0F5805F01D1206998
:10152000B0B1206A411C2162216800784860E08CDB
:10153000401E0004000CE084E3D12068C16821F063
:101540008001C1602068C16841F04001C160D8E7F6
:10155000206A0088C0F308004860206A801C20626E
:10156000E5E74006CDD55006CBD5CA68204622F027
:101570004002CA6084F83D3000F073F8C1E7000013
:10158000211A000870B5040004D094F83D0000252D
:1015900010B106E0012070BD84F83C50204600F0F8
:1015A00023F8242084F83D002068C16821F400510C
:1015B000C160204600F0C4FA2068016921F490411E
:1015C00001612068416921F02A0141612068C168F8
:1015D00041F40051C1602564202084F83D0084F866
:1015E0003E00002070BD000010B586B004461421F6
:1015F0006846FEF7B6FE17492068884227D116488C
:101600000021026842F400320260006800F40030F9
:10161000059011481038026842F00102026000682B
:1016200000F0010005900C2000900220CDE901019E
:101630000720CDE9031069460848FFF76FF800223C
:1016400011462620FFF7FAF92620FFF7E9F906B040
:1016500010BD00000044004040380240000002403D
:1016600070477047FEE7000010B586B01421684649
:10167000FEF777FE20480024016841F00401016074
:10168000016801F004010591016841F080010160E9
:10169000016801F080010591016841F001010160DC
:1016A000016801F001010591016841F0020101604A
:1016B0000068694600F0020005904FF40050009069
:1016C0004FF40410CDE901040C48FFF727F840203F
:1016D00000900220CDE90104CDE9034069460848A5
:1016E000FFF71CF8002211462820FFF7A7F9282051
:1016F000FFF796F906B010BD3038024000080240EE
:101700000000024010B58AB0002407941C216846EE
:101710000894FEF726FE1A484FF080410160072129
:10172000C0E9011444F61F61C0E903148461FFF7A6
:101730005BFD08B172B6FEE7079407A9104808944C
:10174000FFF772FC08B172B6FEE76020CDE9000435
:101750000294002269460A480494FFF7DFFC08B1AE
:1017600072B6FEE7042269460548FFF7D7FC08B1C8
:1017700072B6FEE70248FFF795FC0AB010BD000004
:1017800010000020FEE7FEE7FFF78CB970477047B6
:101790007047FFF7BFB8000030B593B030216846FE
:1017A000FEF7DFFD14210CA8FEF7DBFD184800242E
:1017B000016841F080510160006800F08050119094
:1017C0001448016821F4404141F40041016000687F
:1017D000012500F44040119028040694CDE9005002
:1017E0006846FFF757FA08B172B6FEE70F20CDE959
:1017F0000C054FF48050CDE90E4000210CA8109448
:10180000FFF75EF9002801D072B6FEE713B030BDD5
:1018100040380240007000400248016841F4700105
:101820000160704788ED00E0F0B502681D4B1E4C6A
:101830009F031E4D1E4E984207D0B84205D0A042CD
:1018400003D0A84201D0B04204D122F0700C4A6803
:1018500042EA0C02984210D0B8420ED0A0420CD0FE
:10186000A8420AD0B04208D0124CA04205D0124C77
:10187000A04202D0114CA04203D122F44074CA68A5
:1018800022434C6922F08002224302608A68C262CD
:101890000A688262984201D10969016301214161AC
:1018A000F0BD0000000001400004004000080040BE
:1018B000000C00400040014000440140004801404D
:1018C00010B501F01F030121046A99408C430462A2
:1018D000016A9A401143016210BD000030B5026AEE
:1018E00022F001020262026A4368846924F07305EF
:1018F0000C682C4322F002058A682A430A4DA8424C
:101900000BD122F00805CA6823F440732A434D69BD
:1019100022F004021D438B692B43436084614968B4
:101920004163026230BD00000000014030B5026A30
:1019300022F010020262026A436884690D6824F48E
:10194000E64444EA05248D6822F0200242EA0512AA
:101950000B4DA8420ED1CD6822F0800242EA05125A
:101960004D6923F4406343EA85038D6922F0400208
:1019700043EA85034360846149688163026230BD44
:101980000000014030B5026A22F480720262036AEC
:101990004268C46923F4007324F073050C682C4377
:1019A0008D6843EA05230C4DA8420ED1CD6823F47F
:1019B000006343EA05234D6922F4405242EA0512CE
:1019C0008D6923F4806342EA05124260C46149686C
:1019D000C163036230BD00000000014030B5026AFF
:1019E00022F480520262046A4268C3690D6823F4DB
:1019F000E64343EA05238D6824F4005444EA0534A1
:101A0000064DA84204D14D6922F4804242EA851273
:101A10004260C36149680164046230BD0000014056
:101A200010B5806B0021C185C184FFF776FC10BD25
:101A300001680C3151E8002F22F4907241E8002334
:101A4000002BF5D10168143151E8002F22F001027A
:101A500041E80023002BF5D1016B012909D1016870
:101A60000C3151E8002F22F0100241E80023002B36
:101A7000F5D1202180F83E1000210163704708B5A0
:101A800090F83E10222901D0022008BD82684FF450
:101A900080539A4201D1016921B1816A9A421BD0D7
:101AA0004AB10AE00268816A5268C2F308020A80F9
:101AB000816A891C08E0026972B10268526802F00A
:101AC0007F020A70816A491C8162C18D491E090426
:101AD000090CC18503D019E002685268F1E701687A
:101AE000CA6822F02002CA600168CA6822F48072C3
:101AF000CA6001684A6922F001024A61202180F827
:101B00003E10016B012903D0FFF7AAFD002008BD9C
:101B10000021016301680C3151E8002F22F010020E
:101B200041E80023002BF5D101680A68D20602D5EE
:101B30000A6849680091818DFFF7EEFBE6E7000037
:101B400070B5044600680169E26821F44051114310
:101B500001612169A068E269084361691143084392
:101B60002168CA6849F20C639A430243CA6020683C
:101B70004169A26921F440711143416131492068F2
:101B8000884202D03049884202D1FFF743F801E091
:101B9000FFF730F8E2690023192164253226B2F5F7
:101BA000004F626828D0A0FB0101930F9200FEF75E
:101BB00061FB0146B0FBF5F06FF01802504301EBFA
:101BC000800006EB0010B0FBF5F000F0F002B1FB76
:101BD000F5F002EB0012B1FBF5F06FF0180358437B
:101BE00001EB800006EB0010B0FBF5F000F00F00F9
:101BF00021681044886070BDA0FB010192185B4110
:101C0000FEF738FB0146B0FBF5F00201B1FBF5F041
:101C10006FF01803584301EB800006EBC000B0FBE7
:101C2000F5F000F0F80002EB4002B1FBF5F058438C
:101C300001EB800006EBC000B0FBF5F000F0070000
:101C4000D6E7000000100140001401400148FFF7F2
:101C500065BB000058000020FEE70907090E0028B8
:101C600004DB00F1E02080F80014704700F00F0062
:101C700000F1E02080F8141D70470000FEF752FECE
:101C8000FFF78AFDFFF7F0FC5F485E490C22016018
:101C90004FF4E131416000218160C160C0E904126C
:101CA0008161C161FFF76EFC08B172B6FEE7FFF714
:101CB00029FD554800214838FFF7D6FADFF848B12A
:101CC0004FF40056ABF1480BDFF840A104E01420BC
:101CD000FEF79CFC4FF00109314654465046FEF792
:101CE0000DFE0028F3D0B9F1010F08D1314620468E
:101CF000FEF704FE18B108F101084FF000090320B7
:101D000098FBF0F200FB128189B398FBF0F200FB24
:101D1000128101294FD098FBF0F200FB12800228BB
:101D2000DAD100252746DBF8001068005C464863DE
:101D300031463846FEF7E2FD38B10120FEF766FC79
:101D400042F20F706D1C8542EDDB42F20F75216887
:101D50006800486331463846FEF7D0FD0028BBD006
:101D60000120FEF753FC6D1E002DF0DCB4E7FFE709
:101D700000255F4668013968486331462046FEF712
:101D8000BDFD30B10120FEF741FC6D1CB5F51C7F97
:101D9000F0DB4FF41C753968680148633146204612
:101DA000FEF7ACFD002897D00120FEF72FFC6D1E3A
:101DB000002DF0DC90E700252746DBF80010E80056
:101DC0005C46486331463846FEF798FD38B101203D
:101DD000FEF71CFC40F6C3106D1C8542EDDB40F69F
:101DE000C3152168E800486331463846FEF786FD92
:101DF0000028BBD00120FEF709FC6D1E002DF0DC91
:101E00006AE700000044004058000020000802403B
:101E10004FF04070E1EE100A704700000000000033
:101E20000000010203040607080900000000010287
:101E300003040000541E00080000002010000000F1
:101E4000D0010008641E00081000002010070000E8
:101E5000EC0100080100000010000000000000007C
:041E60000024F40066
:040000050800019559
:00000001FF
